:100000000C9446000C9465000C9465000C946500FB
:100010000C9465000C9465000C9465000C946500CC
:100020000C9465000C9465000C9465000C946500BC
:100030000C9465000C9465000C9465000C946500AC
:100040000C9465000C9465000C9465000C9465009C
:100050000C9465000C9465000C9465000C9465008C
:100060000C9465000C9465000C9465000C9465007C
:100070000C9465000C9465000C9465000C9465006C
:100080000C9465000C9465000C94650011241FBE4F
:10009000CFEFD0E4DEBFCDBF11E0A0E0B1E0EAEDEC
:1000A000F3E000E00BBF02C007900D92AE30B10745
:1000B000D9F721E0AEE0B1E001C01D92A131B20755
:1000C000E1F70E94CE010C94EB010C940000CF9359
:1000D000DF9300D01F92CDB7DEB789837B836A831D
:1000E00089818A3031F48A819B81BC018DE00E9434
:1000F000670080EC90E0FC018081882F90E08072A6
:100100009927892BB1F386EC90E02981FC012083AB
:1001100080E090E00F900F900F90DF91CF910895C5
:10012000CF93DF9300D01F92CDB7DEB78B831A82B7
:10013000198227C088E290E028E0FC01208388E251
:1001400090E028E230E0F9012081422F2B81222F1C
:1001500030E0098002C0359527950A94E2F72170B6
:10016000242BFC01208388E290E028E230E0F901B2
:1001700020812260FC01208389819A8101969A83E3
:10018000898389819A810897ACF288E290E028E21D
:1001900030E0F90120812460FC01208388E290E0B6
:1001A000FC01108200000F900F900F90DF91CF9113
:1001B0000895CF93DF93CDB7DEB780910F01909173
:1001C00010018230910509F44AC08330910528F46A
:1001D000009779F00197B1F07CC08430910509F463
:1001E0004CC08430910508F441C0059709F45BC008
:1001F00070C010920E0181E090E090931001809306
:100200000F016CC080E290E0FC018081882F90E0BB
:100210008095909583709927019739F482E090E05A
:100220009093100180930F0159C080E290E0FC018F
:100230008081882F90E08095909583709927029710
:1002400039F483E090E09093100180930F0146C051
:1002500081E090E09093100180930F013FC084E013
:1002600090E09093100180930F0138C085E090E0FA
:100270009093100180930F0131C080E290E0FC0167
:100280008081882F90E080959095837099270197C1
:1002900019F484E090E002C081E090E090931001B6
:1002A00080930F011BC080E290E0FC018081882FC9
:1002B00090E08095909583709927029719F485E0D6
:1002C00090E002C081E090E09093100180930F01D4
:1002D00005C01092100110920F01000080910F01D3
:1002E000909110018230910519F18330910530F41D
:1002F000009709F44CC0019741F04BC08330910541
:1003000029F1069708F045C02FC080E290E0FC017B
:100310008081882F90E0809590958370992703972E
:1003200011F410920E0180910E010E94900032C0D3
:1003300080910E018F3F29F080910E018F5F809395
:100340000E0180910E010E94900024C080910E0148
:10035000882329F080910E01815080930E018091B5
:100360000E010E94900016C080E290E0FC018081A6
:10037000882F90E08095909583709927039711F4CA
:1003800010920E0180910E010E94900003C00000A7
:1003900001C000000000DF91CF910895CF93DF935B
:1003A000CDB7DEB71092100110920F0181E290E0FC
:1003B000FC01108280E290E02FE0FC01208387E2C4
:1003C00090E02FE0FC01208386E290E0FC011082A7
:0A03D0000E94D900FDCFF894FFCF82
:0E03DA000000000200000000670000000000AC
:00000001FF
