:100000000C9454000C9473000C9473000C947300C3
:100010000C9473000C9473000C9473000C94730094
:100020000C9473000C9473000C9473000C94730084
:100030000C9473000C9412020C9473000C947300D3
:100040000C9473000C9473000C9473000C94730064
:100050000C9473000C9473000C9473000C94730054
:100060000C9473000C9473000C9473000C94730044
:100070000C9473000C9473000C9473000C94730034
:100080000C9473000C9473000C94730087038C031E
:10009000DD03E203E7031F043D04710475048C04CF
:1000A000A404BC04D304D30411241FBECFEFD0E4B6
:1000B000DEBFCDBF11E0A0E0B1E0E0E4FDE000E094
:1000C0000BBF02C007900D92A632B107D9F721E00D
:1000D000A6E2B1E001C01D92A136B207E1F70E948D
:1000E000DF040C949E060C940000CF93DF9300D0A5
:1000F0001F92CDB7DEB789837B836A8389818A307B
:1001000031F48A819B81BC018DE00E94750080ECF6
:1001100090E0FC018081882F90E080729927892BE4
:10012000B1F386EC90E02981FC01208380E090E02F
:100130000F900F900F90DF91CF910895CF93DF93A1
:1001400000D000D0CDB7DEB769837A838B839C83E0
:1001500089819A81AB81BC8180930E0190930F01BC
:10016000A0931001B093110180910E0190910F01A5
:10017000A0911001B0911101809327019093280163
:10018000A0932901B0932A0100000F900F900F90C7
:100190000F90DF91CF910895CF93DF93CDB7DEB766
:1001A00081E890E02BE0FC01208388E890E02DE7D7
:1001B00030E0FC01318320838FE690E022E0FC01F7
:1001C000208384E890E0FC011182108280910E016E
:1001D00090910F01A0911001B0911101809327011E
:1001E00090932801A0932901B0932A018FE590E014
:1001F0002FE530E0F90120812068FC012083000018
:10020000DF91CF910895CF93DF93CDB7DEB781E82B
:1002100090E0FC0110820000DF91CF910895CF9310
:10022000DF9300D01F92CDB7DEB78B831A8219827D
:1002300027C088E290E028E0FC01208388E290E07B
:1002400028E230E0F9012081422F2B81222F30E07B
:10025000098002C0359527950A94E2F72170242B76
:10026000FC01208388E290E028E230E0F90120815F
:100270002260FC01208389819A8101969A83898377
:1002800089819A810897ACF288E290E028E230E018
:10029000F90120812460FC01208388E290E0FC01C8
:1002A000108200000F900F900F90DF91CF91089572
:1002B0000F931F93CF93DF931F92CDB7DEB71982B1
:1002C000A6C08981282F30E0C901880F991F820FAD
:1002D000931F880F991F880F991F8E5C9E4FFC01FA
:1002E00020813181428153818981682F70E0CB0167
:1002F000880F991F860F971F880F991F880F991FC6
:10030000825D9E4FFC0180819181A281B38128177B
:1003100039074A075B0708F449C08981082F10E0B4
:100320008981282F30E0C901880F991F820F931F00
:10033000880F991F880F991F8A5C9E4FFC0140818E
:1003400051818981282F30E0C901880F991F820FC0
:10035000931F880F991F880F991F845D9E4FFC0182
:1003600080819181FA0109959C01C801880F991F2C
:10037000800F911F880F991F880F991F845D9E4FD2
:10038000FC01318320838981282F30E0C901880F47
:10039000991F820F931F880F991F880F991F8E5CDA
:1003A0009E4FFC0110821182128213828981682F74
:1003B00070E08981282F30E0C901880F991F820FD2
:1003C000931F880F991F880F991F8E5C9E4FFC0109
:1003D00080819181A281B38124E630E040E050E049
:1003E000280F391F4A1F5B1FCB01880F991F860FEB
:1003F000971F880F991F880F991F8E5C9E4FFC01D5
:10040000208331834283538389818F5F89838981EC
:10041000843008F456CF00000F90DF91CF911F91E8
:100420000F9108951F920F9200905F000F92112478
:1004300000905B000F922F933F934F935F936F93C6
:100440007F938F939F93AF93BF93EF93FF93CF933C
:10045000DF93CDB7DEB78091270190912801A0915D
:100460002901B0912A010197A109B10980932701BF
:1004700090932801A0932901B0932A01809127012C
:1004800090912801A0912901B0912A01892B8A2BF2
:100490008B2B91F40E94580180910E0190910F01D5
:1004A000A0911001B0911101809327019093280130
:1004B000A0932901B0932A010000DF91CF91FF9111
:1004C000EF91BF91AF919F918F917F916F915F91CC
:1004D0004F913F912F910F9000925B000F900092EF
:1004E0005F000F901F901895CF93DF9300D0CDB78A
:1004F000DEB79A83898389819A81009719F00197E1
:1005000031F00AC081E090E09A83898308C081E0DD
:1005100090E09A83898303C01A821982000089813E
:100520009A81009719F0019731F026C010925D0171
:1005300010925F0121C080915F01883080F480912A
:100540005F01882F90E08E5E9E4FFC01808180933A
:100550005D0180915F018F5F80935F010CC01092FD
:100560005F0180915F01882F90E08E5E9E4FFC01BD
:10057000808180935D01000089819A810F900F90A6
:10058000DF91CF910895CF93DF9300D0CDB7DEB741
:100590009A83898389819A818130910551F08230D3
:1005A000910599F0892BE9F481E090E09A838983A1
:1005B0001BC080912B01873018F481E090E002C0CD
:1005C00082E090E09A8389830FC080912B01882379
:1005D00019F082E090E002C081E090E09A83898384
:1005E00003C01A821982000089819A8181309105A5
:1005F00059F082309105C1F0892B09F025C0109285
:100600005C0110922B0120C080912B01882F90E07B
:10061000865E9E4FFC01808180935C0180912B015E
:100620008F5F80932B0110C080912B01882F90E069
:10063000865E9E4FFC01808180935C0180912B013E
:10064000815080932B01000089819A810F900F9037
:10065000DF91CF910895CF93DF9300D0CDB7DEB770
:100660009A83898389819A818130910551F0823002
:10067000910561F0892B79F481E090E09A83898378
:100680000DC082E090E09A83898308C081E090E009
:100690009A83898303C01A821982000089819A8112
:1006A0008130910549F08230910551F0892B09F094
:1006B0000BC01092600108C085E58093600104C002
:1006C0008AEA80936001000089819A810F900F90DF
:1006D000DF91CF910895CF93DF9300D0CDB7DEB7F0
:1006E0009A83898389819A81092E000CAA0BBB0BFE
:1006F00040E050E026E030E0841B950B28173907D6
:1007000008F4D7C08A5B9F4FFC010C94950681E0EA
:1007100090E09A838983D0C080E290E0FC018081E0
:10072000882F90E081709927892B79F080E290E002
:10073000FC018081882F90E082709927892B29F015
:1007400081E090E09A83898337C080E290E0FC01E9
:100750008081882F90E081709927892B79F480E23D
:1007600090E0FC018081882F90E082709927892B8E
:1007700029F082E090E09A8389831EC080E290E0B5
:10078000FC018081882F90E081709927892B79F076
:1007900080E290E0FC018081882F90E082709927B0
:1007A000892B29F483E090E09A83898305C085E052
:1007B00090E09A83898380C07FC084E090E09A8330
:1007C00089837AC084E090E09A83898375C080E24F
:1007D00090E0FC018081882F90E081709927892B1F
:1007E00079F080E290E0FC018081882F90E08270B7
:1007F0009927892B29F081E090E09A8389831EC094
:1008000080E290E0FC018081882F90E08170992740
:10081000892B79F480E290E0FC018081882F90E0C0
:1008200082709927892B29F485E090E09A83898347
:1008300005C084E090E09A8389833EC03DC080E299
:1008400090E0FC018081882F90E081709927892BAE
:1008500079F480E290E0FC018081882F90E0827042
:100860009927892B29F485E090E09A83898324C015
:1008700086E090E09A8389831FC080E290E0FC01CB
:100880008081882F90E081709927892B69F480E21C
:1008900090E0FC018081882F90E082709927892B5D
:1008A00019F41A82198208C086E090E09A8389833D
:1008B00003C01A821982000089819A81092E000CD6
:1008C000AA0BBB0B40E050E026E030E0841B950B08
:1008D0002817390708F46BC0835B9F4FFC010C9409
:1008E000950681E080935E0163C080915E01813056
:1008F00029F480915D010E940F015AC080915E0130
:10090000823029F480915C010E940F0151C08091D6
:1009100060010E940F014CC010925F0110922B01E8
:1009200080915E01813021F482E080935E0140C0BD
:1009300080915E01823021F483E080935E0138C0B3
:1009400081E080935E0134C010925F0110922B0110
:1009500080915E01813021F483E080935E0128C0A4
:1009600080915E01823021F481E080935E0120C09D
:1009700082E080935E011CC080915E01813029F489
:1009800080915D010E940F0113C080915E01823051
:1009900029F480915C010E940F010AC080916001DE
:1009A0000E940F0105C080E00E940F0101C00000FD
:1009B00089819A810F900F90DF91CF910895CF9305
:1009C000DF931F92CDB7DEB781E290E0FC01108289
:1009D00080E290E02FE0FC01208387E290E02FEF9F
:1009E000FC01208386E290E0FC01108281E080938C
:1009F0005E0119828981282F30E0C901880F991F73
:100A0000820F931F880F991F880F991F845D9E4F37
:100A1000FC01118210828981682F70E024E630E0A9
:100A200040E050E0CB01880F991F860F971F880F79
:100A3000991F880F991F825D9E4FFC01208331838F
:100A4000428353838981682F70E08981282F30E0A9
:100A5000C901880F991F820F931F880F991F880F54
:100A6000991F825D9E4FFC0120813181428153811B
:100A7000CB01880F991F860F971F880F991F880F2A
:100A8000991F8E5C9E4FFC012083318342835383E8
:100A90008981282F30E0C901880F991F820F931F89
:100AA000880F991F880F991F8A5C9E4F2BE633E0B1
:100AB000FC013183208389818F5F89838981282F7D
:100AC00030E0C901880F991F820F931F880F991F6B
:100AD000880F991F845D9E4FFC01118210828981CD
:100AE000282F30E0C901880F991F820F931F880FAC
:100AF000991F880F991F9C01225D3E4F84E690E06C
:100B0000A0E0B0E0F90180839183A283B38389815F
:100B1000682F70E08981282F30E0C901880F991F64
:100B2000820F931F880F991F880F991F825D9E4F18
:100B3000FC012081318142815381CB01880F991FB3
:100B4000860F971F880F991F880F991F8E5C9E4FE5
:100B5000FC0120833183428353838981282F30E035
:100B6000C901880F991F820F931F880F991F880F43
:100B7000991F8A5C9E4F24E732E0FC013183208379
:100B800089818F5F89838981282F30E0C901880F8F
:100B9000991F820F931F880F991F880F991F845DDB
:100BA0009E4FFC01118210828981282F30E0C901FB
:100BB000880F991F820F931F880F991F880F991F05
:100BC0009C01225D3E4F84E690E0A0E0B0E0F90198
:100BD00080839183A283B3838981682F70E08981A8
:100BE000282F30E0C901880F991F820F931F880FAB
:100BF000991F880F991F825D9E4FFC0120813181D2
:100C000042815381CB01880F991F860F971F880F50
:100C1000991F880F991F8E5C9E4FFC0120833183A2
:100C2000428353838981282F30E0C901880F991F9F
:100C3000820F931F880F991F880F991F8A5C9E4F00
:100C400023EC32E0FC013183208389818F5F89832B
:100C50008981282F30E0C901880F991F820F931FC7
:100C6000880F991F880F991F845D9E4FFC01118288
:100C700010828981282F30E0C901880F991F820FC7
:100C8000931F880F991F880F991F9C01225D3E4F6B
:100C90008CE291E0A0E0B0E0F90180839183A2832F
:100CA000B3838981682F70E08981282F30E0C901E2
:100CB000880F991F820F931F880F991F880F991F04
:100CC000825D9E4FFC012081318142815381CB01A5
:100CD000880F991F860F971F880F991F880F991FDC
:100CE0008E5C9E4FFC012083318342835383898134
:100CF000282F30E0C901880F991F820F931F880F9A
:100D0000991F880F991F8A5C9E4F2BE233E0FC01EC
:100D10003183208384E690E0A0E0B0E0BC01CD0107
:100D20000E949E000E94CC00FFCFEE0FFF1F002408
:100D3000001C0BBE0790F691E02D0994F894FFCFAC
:100D4000000000020000000075000000000001002B
:100D500000000081C3E7FFE7C381010204081020FF
:060D600040806400000069
:00000001FF
