:100000000C9446000C9465000C9465000C946500FB
:100010000C9465000C9465000C9465000C946500CC
:100020000C9465000C9465000C9465000C946500BC
:100030000C9465000C9404020C9465000C9465000B
:100040000C9465000C9465000C9465000C9465009C
:100050000C9465000C9465000C9465000C9465008C
:100060000C9465000C9465000C9465000C9465007C
:100070000C9465000C9465000C9465000C9465006C
:100080000C9465000C9465000C94650011241FBE4F
:10009000CFEFD0E4DEBFCDBF11E0A0E0B1E0E2EEF3
:1000A000FCE000E00BBF02C007900D92A832B10740
:1000B000D9F721E0A8E2B1E001C01D92A336B20752
:1000C000E1F70E94BC040C946F060C940000CF93DF
:1000D000DF9300D01F92CDB7DEB789837B836A831D
:1000E00089818A3031F48A819B81BC018DE00E9434
:1000F000670080EC90E0FC018081882F90E08072A6
:100100009927892BB1F386EC90E02981FC012083AB
:1001100080E090E00F900F900F90DF91CF910895C5
:10012000CF93DF9300D000D0CDB7DEB769837A8359
:100130008B839C8389819A81AB81BC8180930E01E2
:1001400090930F01A0931001B093110180910E01C3
:1001500090910F01A0911001B0911101809329019C
:1001600090932A01A0932B01B0932C0100000F90D3
:100170000F900F900F90DF91CF910895CF93DF9361
:10018000CDB7DEB781E890E02BE0FC01208388E862
:1001900090E02DE730E0FC01318320838FE690E092
:1001A00022E0FC01208384E890E0FC0111821082AF
:1001B00080910E0190910F01A0911001B091110159
:1001C0008093290190932A01A0932B01B0932C01D5
:1001D0008FE590E02FE530E0F90120812068FC01F7
:1001E00020830000DF91CF910895CF93DF93CDB7A7
:1001F000DEB781E890E0FC0110820000DF91CF9132
:100200000895CF93DF9300D01F92CDB7DEB78B83D5
:100210001A82198227C088E290E028E0FC0120833E
:1002200088E290E028E230E0F9012081422F2B8122
:10023000222F30E0098002C0359527950A94E2F715
:100240002170242BFC01208388E290E028E230E03A
:10025000F90120812260FC01208389819A81019625
:100260009A83898389819A810897ACF288E290E029
:1002700028E230E0F90120812460FC01208388E23B
:1002800090E0FC01108200000F900F900F90DF9122
:10029000CF9108950F931F93CF93DF931F92CDB704
:1002A000DEB71982A6C08981282F30E0C901880FE6
:1002B000991F820F931F880F991F880F991F8B5CBE
:1002C0009E4FFC0120813181428153818981682FB9
:1002D00070E0CB01880F991F860F971F880F991F19
:1002E000880F991F8F5C9E4FFC0180819181A281B4
:1002F000B381281739074A075B0708F449C0898189
:10030000082F10E08981282F30E0C901880F991F3C
:10031000820F931F880F991F880F991F875C9E4F2C
:10032000FC01408151818981282F30E0C901880F6B
:10033000991F820F931F880F991F880F991F815D46
:100340009E4FFC0180819181FA0109959C01C801B1
:10035000880F991F800F911F880F991F880F991F71
:10036000815D9E4FFC01318320838981282F30E0FD
:10037000C901880F991F820F931F880F991F880F3B
:10038000991F8B5C9E4FFC01108211821282138296
:100390008981682F70E08981282F30E0C901880F9A
:1003A000991F820F931F880F991F880F991F8B5CCD
:1003B0009E4FFC0180819181A281B38122E330E0D4
:1003C00040E050E0280F391F4A1F5B1FCB01880F08
:1003D000991F860F971F880F991F880F991F8B5C95
:1003E0009E4FFC01208331834283538389818F5F39
:1003F00089838981843008F456CF00000F90DF9103
:10040000CF911F910F9108951F920F9200905F005E
:100410000F92112400905B000F922F933F934F9304
:100420005F936F937F938F939F93AF93BF93EF935C
:10043000FF93CF93DF93CDB7DEB7809129019091E1
:100440002A01A0912B01B0912C010197A109B109BA
:100450008093290190932A01A0932B01B0932C0142
:100460008091290190912A01A0912B01B0912C013A
:10047000892B8A2B8B2B91F40E944A0180910E01CB
:1004800090910F01A0911001B09111018093290169
:1004900090932A01A0932B01B0932C010000DF91CF
:1004A000CF91FF91EF91BF91AF919F918F917F91EC
:1004B0006F915F914F913F912F910F9000925B0050
:1004C0000F9000925F000F901F901895CF93DF93CD
:1004D00000D0CDB7DEB79A83898389819A8100974E
:1004E00019F0019731F00AC081E090E09A83898386
:1004F00008C081E090E09A83898303C01A82198240
:10050000000089819A81009719F0019731F026C087
:100510001092600110922D0121C080912D01883030
:1005200080F480912D01882F90E08E5E9E4FFC011B
:1005300080818093600180912D018F5F80932D01D8
:100540000CC010922D0180912D01882F90E08E5EBD
:100550009E4FFC01808180936001000089819A8117
:100560000F900F90DF91CF910895CF93DF9300D03C
:10057000CDB7DEB79A83898389819A8181309105CD
:1005800051F08230910599F0892BE9F481E090E0F7
:100590009A8389831BC080912E01873018F481E0F3
:1005A00090E002C082E090E09A8389830FC080913E
:1005B0002E01882319F082E090E002C081E090E0F3
:1005C0009A83898303C01A821982000089819A81E3
:1005D0008130910559F082309105C1F0892B09F0E5
:1005E00025C010925F0110922E0120C080912E0133
:1005F000882F90E0865E9E4FFC01808180935F0192
:1006000080912E018F5F80932E0110C080912E016A
:10061000882F90E0865E9E4FFC01808180935F0171
:1006200080912E01815080932E01000089819A8152
:100630000F900F90DF91CF910895CF93DF9300D06B
:10064000CDB7DEB79A83898389819A8181309105FC
:1006500051F08230910561F0892B79F481E090E0CE
:100660009A8389830DC082E090E09A83898308C0D1
:1006700081E090E09A83898303C01A821982000086
:1006800089819A818130910549F08230910551F03C
:10069000892B09F00BC01092620108C085E5809398
:1006A000620104C08AEA80936201000089819A8114
:1006B0000F900F90DF91CF910895CF93DF9300D0EB
:1006C000CDB7DEB79A83898389819A81823091057B
:1006D00009F46AC0833091052CF4009779F00197F2
:1006E00091F0A9C08430910509F468C08430910567
:1006F0000CF45FC0059709F499C09DC081E090E0BB
:100700009A8389839BC080E290E0FC018081882FDE
:1007100090E081709927892B79F080E290E0FC01CC
:100720008081882F90E082709927892B29F081E0C1
:1007300090E09A83898337C080E290E0FC01808159
:10074000882F90E081709927892B79F480E290E0DE
:10075000FC018081882F90E082709927892B29F0F5
:1007600082E090E09A8389831EC080E290E0FC01E1
:100770008081882F90E081709927892B79F080E221
:1007800090E0FC018081882F90E082709927892B6E
:1007900029F483E090E09A83898305C085E090E0A6
:1007A0009A8389834BC04AC084E090E09A8389830E
:1007B00045C084E090E09A83898340C080E290E065
:1007C000FC018081882F90E081709927892B79F036
:1007D00080E290E0FC018081882F90E08270992770
:1007E000892B29F081E090E09A8389831EC080E202
:1007F00090E0FC018081882F90E081709927892BFF
:1008000079F480E290E0FC018081882F90E0827092
:100810009927892B29F485E090E09A83898305C084
:1008200084E090E09A83898309C008C081E090E069
:100830009A83898303C01A821982000089819A8170
:100840008230910559F18330910534F4009709F411
:100850008BC0019761F089C08430910509F45EC0B6
:1008600084309105DCF1059709F46FC07EC080915A
:100870006101813029F4809160010E94010175C0FD
:1008800080916101823029F480915F010E94010111
:100890006CC0809162010E94010167C0809161017A
:1008A000813041F482E08093610180915F010E9478
:1008B00001015BC080916101823041F483E080934B
:1008C0006101809162010E9401014FC081E080932B
:1008D0006101809160010E94010147C08091610126
:1008E000813041F483E080936101809162010E9434
:1008F00001013BC080916101823041F481E080932D
:100900006101809160010E9401012FC082E080930B
:10091000610180915F010E94010127C08091610106
:10092000813029F4809160010E9401011EC08091F4
:100930006101823029F480915F010E94010115C09C
:10094000809162010E94010110C0809122018823E0
:1009500029F00E94F5001092220107C00E94BE00FB
:1009600081E08093220101C0000089819A810F906B
:100970000F90DF91CF910895CF93DF931F92CDB762
:10098000DEB781E290E0FC01108280E290E02FE08F
:10099000FC01208387E290E02FEFFC01208386E2B8
:1009A00090E0FC01108281E08093610119828981CD
:1009B000282F30E0C901880F991F820F931F880FDD
:1009C000991F880F991F815D9E4FFC011182108233
:1009D0008981682F70E022E330E040E050E0CB01F5
:1009E000880F991F860F971F880F991F880F991FCF
:1009F0008F5C9E4FFC012083318342835383898126
:100A0000682F70E08981282F30E0C901880F991F75
:100A1000820F931F880F991F880F991F8F5C9E4F1D
:100A2000FC012081318142815381CB01880F991FC4
:100A3000860F971F880F991F880F991F8B5C9E4FF9
:100A4000FC0120833183428353838981282F30E046
:100A5000C901880F991F820F931F880F991F880F54
:100A6000991F875C9E4F2DE533E0FC013183208385
:100A700089818F5F89838981282F30E0C901880FA0
:100A8000991F820F931F880F991F880F991F815DEF
:100A90009E4FFC01118210828981682F70E022E351
:100AA00030E040E050E0CB01880F991F860F971F80
:100AB000880F991F880F991F8F5C9E4FFC01208320
:100AC0003183428353838981682F70E08981282F85
:100AD00030E0C901880F991F820F931F880F991F5B
:100AE000880F991F8F5C9E4FFC01208131814281CC
:100AF0005381CB01880F991F860F971F880F991F6D
:100B0000880F991F8B5C9E4FFC01208331834283A9
:100B100053838981282F30E0C901880F991F820FE4
:100B2000931F880F991F880F991F875C9E4F26E699
:100B300032E0FC013183208389818F5F8983898141
:100B4000282F30E0C901880F991F820F931F880F4B
:100B5000991F880F991F815D9E4FFC0111821082A1
:100B60008981682F70E022E330E040E050E0CB0163
:100B7000880F991F860F971F880F991F880F991F3D
:100B80008F5C9E4FFC012083318342835383898194
:100B9000682F70E08981282F30E0C901880F991FE4
:100BA000820F931F880F991F880F991F8F5C9E4F8C
:100BB000FC012081318142815381CB01880F991F33
:100BC000860F971F880F991F880F991F8B5C9E4F68
:100BD000FC0120833183428353838981282F30E0B5
:100BE000C901880F991F820F931F880F991F880FC3
:100BF000991F875C9E4F25EB32E0FC0131832083F7
:100C000089818F5F89838981282F30E0C901880F0E
:100C1000991F820F931F880F991F880F991F815D5D
:100C20009E4FFC01118210828981682F70E022E3BF
:100C300030E040E050E0CB01880F991F860F971FEE
:100C4000880F991F880F991F8F5C9E4FFC0120838E
:100C50003183428353838981682F70E08981282FF3
:100C600030E0C901880F991F820F931F880F991FC9
:100C7000880F991F8F5C9E4FFC012081318142813A
:100C80005381CB01880F991F860F971F880F991FDB
:100C9000880F991F8B5C9E4FFC0120833183428318
:100CA00053838981282F30E0C901880F991F820F53
:100CB000931F880F991F880F991F875C9E4F2DE106
:100CC00033E0FC013183208382E390E0A0E0B0E0D8
:100CD000BC01CD010E9490000E94BE00FFCFF8949D
:020CE000FFCF44
:100CE2000000000200000000670000000000010098
:100CF20000000081C3E7FFE7C3810102040810205E
:080D02004080013200000000F6
:00000001FF
