:100000000C9458000C9477000C9477000C947700B3
:100010000C9477000C9477000C9477000C94770084
:100020000C9477000C9477000C9477000C94770074
:100030000C9477000C942E020C9477000C947700AB
:100040000C9477000C9477000C9477000C94770054
:100050000C9477000C9477000C9477000C94770044
:100060000C9477000C9477000C9477000C94770034
:100070000C9477000C9477000C9477000C94770024
:100080000C9477000C9477000C947700A303A803DA
:10009000440460047C049804B404190537056D0514
:1000A0007205C005DD05FC051906720536066C06ED
:1000B00011241FBECFEFD0E4DEBFCDBF11E0A0E022
:1000C000B1E0EAEEF0E100E00BBF02C007900D9254
:1000D000A632B107D9F721E0A6E2B1E001C01D9236
:1000E000A236B207E1F70E94B7060C9473080C948D
:1000F0000000CF93DF9300D01F92CDB7DEB7898386
:100100007B836A8389818A3031F48A819B81BC0137
:100110008DE00E94790080EC90E0FC018081882FC6
:1001200090E080729927892BB1F386EC90E02981C9
:10013000FC01208380E090E00F900F900F90DF9102
:10014000CF910895CF93DF9300D000D0CDB7DEB725
:1001500069837A838B839C8389819A81AB81BC81FB
:1001600080930E0190930F01A0931001B0931101A1
:1001700080910E0190910F01A0911001B091110199
:100180008093270190932801A0932901B0932A011D
:1001900000000F900F900F900F90DF91CF91089576
:1001A000CF93DF93CDB7DEB781E890E02BE0FC0181
:1001B000208388E890E02DE730E0FC013183208344
:1001C0008FE690E022E0FC01208384E890E0FC01CF
:1001D0001182108280910E0190910F01A091100167
:1001E000B09111018093270190932801A0932901D8
:1001F000B0932A018FE590E02FE530E0F9012081EE
:100200002068FC0120830000DF91CF910895CF93F7
:10021000DF93CDB7DEB781E890E0FC0110820000EB
:10022000DF91CF910895CF93DF9300D000D0CDB769
:10023000DEB78B836C831A82198230C08C81813047
:1002400031F488E290E028E0FC01208305C088E2D8
:1002500090E020E2FC01208388E290E028E230E098
:10026000F9012081422F2B81222F30E0098002C02A
:10027000359527950A94E2F72170242BFC01208301
:1002800088E290E028E230E0F90120812260FC0160
:10029000208389819A8101969A83898389819A81B1
:1002A000089764F28C81813051F488E290E028E272
:1002B00030E0F90120812460FC01208309C088E23C
:1002C00090E028E230E0F90120812061FC012083E8
:1002D00088E290E0FC01108200000F900F900F90D8
:1002E0000F90DF91CF9108950F931F93CF93DF93DA
:1002F0001F92CDB7DEB71982A6C08981282F30E0C2
:10030000C901880F991F820F931F880F991F880FAB
:10031000991F8E5C9E4FFC01208131814281538167
:100320008981682F70E0CB01880F991F860F971F76
:10033000880F991F880F991F825D9E4FFC01808155
:100340009181A281B381281739074A075B0708F416
:1003500049C08981082F10E08981282F30E0C90128
:10036000880F991F820F931F880F991F880F991F5D
:100370008A5C9E4FFC01408151818981282F30E0A9
:10038000C901880F991F820F931F880F991F880F2B
:10039000991F845D9E4FFC0180819181FA0109952E
:1003A0009C01C801880F991F800F911F880F991F0A
:1003B000880F991F845D9E4FFC01318320838981C2
:1003C000282F30E0C901880F991F820F931F880FD3
:1003D000991F880F991F8E5C9E4FFC01108211821D
:1003E000128213828981682F70E08981282F30E082
:1003F000C901880F991F820F931F880F991F880FBB
:10040000991F8E5C9E4FFC0180819181A281B381F6
:1004100022E330E040E050E0280F391F4A1F5B1F05
:10042000CB01880F991F860F971F880F991F880F80
:10043000991F8E5C9E4FFC0120833183428353833E
:1004400089818F5F89838981843008F456CF0000C9
:100450000F90DF91CF911F910F9108951F920F92EE
:1004600000905F000F92112400905B000F922F9379
:100470003F934F935F936F937F938F939F93AF932C
:10048000BF93EF93FF93CF93DF93CDB7DEB7809108
:10049000270190912801A0912901B0912A0101978B
:1004A000A109B1098093270190932801A093290104
:1004B000B0932A018091270190912801A0912901F0
:1004C000B0912A01892B8A2B8B2B91F40E94740105
:1004D00080910E0190910F01A0911001B091110136
:1004E0008093270190932801A0932901B0932A01BA
:1004F0000000DF91CF91FF91EF91BF91AF919F915C
:100500008F917F916F915F914F913F912F910F90BC
:1005100000925B000F9000925F000F901F90189563
:10052000CF93DF9300D0CDB7DEB79A8389838981DB
:100530009A81009719F0019731F00AC081E090E0AC
:100540009A83898308C081E090E09A83898303C0FD
:100550001A821982000089819A81009719F0019707
:1005600031F026C010925F011092600121C080918D
:100570006001883080F480916001882F90E08E5E69
:100580009E4FFC01808180935F01809160018F5FAD
:10059000809360010CC01092600180916001882FEF
:1005A00090E08E5E9E4FFC01808180935F01000091
:1005B00089819A810F900F90DF91CF910895CF9309
:1005C000DF9300D0CDB7DEB79A83898389819A8182
:1005D0008130910551F08230910599F0892BE9F431
:1005E00081E090E09A8389831BC080912B01873042
:1005F00018F481E090E002C082E090E09A83898361
:100600000FC080912B01882319F082E090E002C096
:1006100081E090E09A83898303C01A8219820000E6
:1006200089819A818130910559F082309105C1F01C
:10063000892B09F025C010925D0110922B0120C07A
:1006400080912B01882F90E0865E9E4FFC01808177
:1006500080935D0180912B018F5F80932B0110C0EF
:1006600080912B01882F90E0865E9E4FFC01808157
:1006700080935D0180912B01815080932B010000BC
:1006800089819A810F900F90DF91CF910895CF9338
:10069000DF9300D0CDB7DEB79A83898389819A81B1
:1006A0008130910551F08230910561F0892B79F408
:1006B00081E090E09A8389830DC082E090E09A8384
:1006C000898308C081E090E09A83898303C01A82FD
:1006D0001982000089819A818130910549F0823028
:1006E000910551F0892B09F00BC01092610108C0EF
:1006F00085E58093610104C08AEA8093610100006E
:1007000089819A810F900F90DF91CF910895CF93B7
:10071000DF9300D0CDB7DEB79A83898389819A8130
:10072000092E000CAA0BBB0B40E050E028E030E0A3
:10073000841B950B2817390708F4B7C18A5B9F4FB4
:10074000FC010C946A0881E090E09A838983B0C12F
:1007500080E290E0FC018081882F90E081709927F1
:10076000892B79F480E290E0FC018081882F90E071
:1007700082709927892B29F082E090E09A838983FF
:1007800082C080E290E0FC018081882F90E081703F
:100790009927892B79F080E290E0FC018081882FF5
:1007A00090E082709927892B29F483E090E09A8366
:1007B000898369C080E290E0FC018081882F90E00D
:1007C00084709927892B79F480E290E0FC01808184
:1007D000882F90E088709927892B29F084E090E099
:1007E0009A83898350C080E290E0FC018081882F49
:1007F00090E084709927892B79F080E290E0FC01E9
:100800008081882F90E088709927892B29F485E0D2
:1008100090E09A83898337C080E290E0FC01808178
:10082000882F90E081709927892B79F480E290E0FD
:10083000FC018081882F90E082709927892B29F410
:1008400087E090E09A8389831EC080E290E0FC01FB
:100850008081882F90E084709927892B79F480E239
:1008600090E0FC018081882F90E088709927892B87
:1008700029F488E090E09A83898305C081E090E0C4
:100880009A83898315C114C180E290E0FC018081C4
:10089000882F90E081709927892B69F480E290E09D
:1008A000FC018081882F90E082709927892B19F4B0
:1008B00087E090E002C086E090E09A838983F8C0E8
:1008C00080E290E0FC018081882F90E08170992780
:1008D000892B69F480E290E0FC018081882F90E010
:1008E00082709927892B19F487E090E002C086E096
:1008F00090E09A838983DCC080E290E0FC018081F3
:10090000882F90E084709927892B69F480E290E029
:10091000FC018081882F90E088709927892B19F439
:1009200088E090E002C086E090E09A838983C0C0AE
:1009300080E290E0FC018081882F90E0847099270C
:10094000892B69F480E290E0FC018081882F90E09F
:1009500088709927892B19F488E090E002C086E01E
:1009600090E09A838983A4C080E290E0FC018081BA
:10097000882F90E081709927892B19F180E290E00F
:10098000FC018081882F90E082709927892BC9F023
:1009900080E290E0FC018081882F90E084709927AC
:1009A000892B79F080E290E0FC018081882F90E033
:1009B00088709927892B29F081E090E09A838983B8
:1009C00037C080E290E0FC018081882F90E0817048
:1009D0009927892B79F480E290E0FC018081882FAF
:1009E00090E082709927892B29F487E090E09A8320
:1009F00089831EC080E290E0FC018081882F90E016
:100A000084709927892B79F480E290E0FC01808141
:100A1000882F90E088709927892B29F488E090E04E
:100A20009A83898305C086E090E09A83898340C0D9
:100A30003FC080E290E0FC018081882F90E08170CF
:100A40009927892B79F480E290E0FC018081882F3E
:100A500090E082709927892B29F487E090E09A83AF
:100A6000898326C081E090E09A83898321C080E257
:100A700090E0FC018081882F90E084709927892B79
:100A800079F480E290E0FC018081882F90E088700A
:100A90009927892B29F488E090E09A83898308C0FC
:100AA00081E090E09A83898303C01A821982000052
:100AB00089819A81092E000CAA0BBB0B40E050E003
:100AC00028E030E0841B950B2817390708F439C15A
:100AD000815B9F4FFC010C946A0810925C0110929C
:100AE0005E013EC180915C01882329F461E080E0D1
:100AF0000E9413011DC080915C01813031F480910E
:100B00005F0161E00E94130113C080915C0182309B
:100B100031F480915D0161E00E94130109C0809170
:100B20005C01833029F48091610161E00E9413012E
:100B300080915E01882329F462E080E00E94130125
:100B400002C180915E01813031F480915F0162E0E9
:100B50000E941301F8C080915E01823031F48091CF
:100B60005D0162E00E941301EEC080915E0183305E
:100B700009F0E9C08091610162E00E941301E3C0C5
:100B800080915C01813031F410922B0182E08093DE
:100B90005C01DBC080915C01823021F483E08093B2
:100BA0005C01D3C080915C01833009F0CEC010920B
:100BB000600181E080935C01C8C010926001809167
:100BC0005C01813021F483E080935C01C0C080919E
:100BD0005C01823031F41092600181E080935C010D
:100BE000B6C080915C01833009F0B1C010922B0136
:100BF00082E080935C01ABC080915E01813031F472
:100C000010922B0182E080935E01A3C080915E016F
:100C1000823021F483E080935E019BC080915E016D
:100C2000833009F096C01092600181E080935E01EC
:100C300090C080915E01813021F483E080935E0159
:100C40008AC080915E01823031F41092600181E0AF
:100C500080935E0180C080915E01833009F07BC08B
:100C600010922B0182E080935E0175C080915C013F
:100C7000882319F010925C0107C080915C018823E1
:100C800019F481E080935C0180915E01882329F44E
:100C900062E080E00E94130160C080915E018130BB
:100CA00031F480915F0162E00E94130156C080918F
:100CB0005E01823031F480915D0162E00E94130197
:100CC0004CC080915E01833009F047C08091610182
:100CD00062E00E94130141C080915E01882319F0F7
:100CE00010925E0107C080915E01882319F481E0B3
:100CF00080935E0180915C01882329F461E080E0AB
:100D00000E9413012CC080915C01813031F48091EC
:100D10005F0161E00E94130122C080915C0182307A
:100D200031F480915D0161E00E94130118C080914F
:100D30005C018330A1F48091610161E00E941301A4
:100D40000EC000000DC000000BC0000009C0000074
:100D500007C0000005C0000003C0000001C0000083
:100D600089819A810F900F90DF91CF910895CF9351
:100D7000DF931F92CDB7DEB781E290E0FC011082D5
:100D800080E290E02FE0FC01208387E290E02FEFEB
:100D9000FC01208386E290E0FC01108219828981A7
:100DA000282F30E0C901880F991F820F931F880FE9
:100DB000991F880F991F845D9E4FFC01118210823C
:100DC0008981682F70E022E330E040E050E0CB0101
:100DD000880F991F860F971F880F991F880F991FDB
:100DE000825D9E4FFC01208331834283538389813E
:100DF000682F70E08981282F30E0C901880F991F82
:100E0000820F931F880F991F880F991F825D9E4F35
:100E1000FC012081318142815381CB01880F991FD0
:100E2000860F971F880F991F880F991F8E5C9E4F02
:100E3000FC0120833183428353838981282F30E052
:100E4000C901880F991F820F931F880F991F880F60
:100E5000991F8A5C9E4F27E833E0FC013183208391
:100E600089818F5F89838981282F30E0C901880FAC
:100E7000991F820F931F880F991F880F991F845DF8
:100E80009E4FFC01118210828981282F30E0C90118
:100E9000880F991F820F931F880F991F880F991F22
:100EA0009C01225D3E4F84E690E0A0E0B0E0F901B5
:100EB00080839183A283B3838981682F70E08981C5
:100EC000282F30E0C901880F991F820F931F880FC8
:100ED000991F880F991F825D9E4FFC0120813181EF
:100EE00042815381CB01880F991F860F971F880F6E
:100EF000991F880F991F8E5C9E4FFC0120833183C0
:100F0000428353838981282F30E0C901880F991FBC
:100F1000820F931F880F991F880F991F8A5C9E4F1D
:100F200020E932E0FC013183208389818F5F89834E
:100F30008981282F30E0C901880F991F820F931FE4
:100F4000880F991F880F991F845D9E4FFC011182A5
:100F500010828981282F30E0C901880F991F820FE4
:100F6000931F880F991F880F991F9C01225D3E4F88
:100F700084E690E0A0E0B0E0F90180839183A28351
:100F8000B3838981682F70E08981282F30E0C901FF
:100F9000880F991F820F931F880F991F880F991F21
:100FA000825D9E4FFC012081318142815381CB01C2
:100FB000880F991F860F971F880F991F880F991FF9
:100FC0008E5C9E4FFC012083318342835383898151
:100FD000282F30E0C901880F991F820F931F880FB7
:100FE000991F880F991F8A5C9E4F2FED32E0FC01FC
:100FF0003183208389818F5F89838981282F30E025
:10100000C901880F991F820F931F880F991F880F9E
:10101000991F845D9E4FFC01118210828981282FC7
:1010200030E0C901880F991F820F931F880F991F05
:10103000880F991F9C01225D3E4F8CE291E0A0E059
:10104000B0E0F90180839183A283B3838981682F03
:1010500070E08981282F30E0C901880F991F820F25
:10106000931F880F991F880F991F825D9E4FFC0167
:101070002081318142815381CB01880F991F860FD6
:10108000971F880F991F880F991F8E5C9E4FFC0138
:1010900020833183428353838981282F30E0C90123
:1010A000880F991F820F931F880F991F880F991F10
:1010B0008A5C9E4F27E433E0FC013183208382E386
:1010C00090E0A0E0B0E0BC01CD010E94A2000E942F
:1010D000D000FFCFEE0FFF1F0024001C0BBE0790B7
:0A10E000F691E02D0994F894FFCF7B
:1010EA00000000020000000079000000000001007A
:1010FA0000000081C3E7FFE7C38101020408102052
:06110A00408032000000ED
:00000001FF
